:020000041000EA
:1000000000B5324B212058609868022188439860DF
:10001000D860186158612E4B002199600221596106
:100020000121F02299502B49196001219960352056
:1000300000F044F80222904214D00621196600F024
:1000400034F8196E01211966002018661A6600F04E
:100050002CF8196E196E196E052000F02FF8012189
:100060000842F9D1002199601B49196000215960AB
:100070001A491B48016001219960EB211966A021F2
:10008000196600F012F800219960164914480160C1
:100090000121996001BC002800D000471248134993
:1000A000086003C880F30888084703B5996A0420EC
:1000B0000142FBD001200142F8D103BD02B5186610
:1000C0001866FFF7F2FF186E186E02BD00000240BE
:1000D000000000180000070000035F00212200005C
:1000E000F4000018222000A00001001008ED00E03C
:1000F00000000000000000000000000074B24E7A12
:1001000000200420F7010010C3010010C5010010F9
:10011000C1010010C1010010C1010010C101001097
:10012000C1010010C1010010C1010010C701001081
:10013000C1010010C1010010C9010010CB01001065
:10014000CD010010CD010010CD010010CD01001037
:10015000CD010010CD010010CD010010CD01001027
:10016000CD010010CD010010CD010010CD01001017
:10017000CD010010CD010010CD010010CD01001007
:10018000CD010010CD010010CD010010CD010010F7
:10019000CD010010CD010010CD010010CD010010E7
:1001A000CD010010CD010010CD010010CD010010D7
:1001B000CD010010CD010010CD010010CD010010C7
:1001C00000BE00BE00BE00BE00BE00BEEFF3058054
:1001D000103800BEF2EB8871B0860410CC86041093
:1001E0003402001090A31AE700201F49086006C8D7
:1001F00081F3088810471D48006800282FD10DA4FE
:100200000ECC002902D000F012F8F9E71849194A7B
:10021000002000E001C19142FCD1174988471749ED
:1002200088471749884700BEFDE701C901C29A42C5
:10023000FBD37047CC860410C0000020A41E002011
:10024000B0A404100000042000000420B0A4041096
:10025000001004200010042000000000704709482E
:1002600002F012FF0047000008ED00E0000000D09F
:10027000A81E0020383A0020C51D00108903001078
:10028000831D00105756000006005250ABB3605358
:1002900030DF031006005250861C030240DF0310BB
:1002A000060052505422A29D48DF03100500525010
:1002B000DE65F468B0A40410F8B5C0460448054BE8
:1002C00010B5834203D0044B002B00D0984710BDDB
:1002D000A41E0020A41E00200000000006480749BC
:1002E000091A8B10C90FC91810B5491003D0044B57
:1002F000002B00D0984710BDA41E0020A41E002093
:100300000000000010B5074C2378002B09D1FFF73F
:10031000D5FF054B002B02D0044800E000BF0123AD
:10032000237010BDA81F00200000000048D003105B
:10033000054B10B5002B03D00449054800E000BF71
:10034000FFF7CCFF10BDC04600000000AC1F00202E
:1003500048D0031070B504000D00012805D0002C12
:1003600002D1074B9D4207D070BD054B9942F6D193
:10037000044804F0EBFAF2E7024804F0F7FAF3E776
:10038000FFFF00007C36002010B50349034821F030
:100390004FF9002010BDC04648D00310AC330020F8
:1003A00010B502490120FFF7D5FF10BDFFFF000087
:1003B000034B1B6802201840431E9841C0B270478F
:1003C00000C00640EFF3108072B6034B1B68002B91
:1003D000FBD0BFF35F8F70472C0100D0BFF35F8F5E
:1003E000024B00221A6080F3108870472C0100D065
:1003F000F8B506000C001500FFF7E4FFE308F71856
:10040000F15C07222240012393400B4205D1DBB26D
:100410000B433B70FFF7E2FFF8BD2100280001F01D
:100420004DFD0000002307E0054A9A189200BFF333
:100430005F8F0021116001331F2BF5D97047C04633
:1004400040000034054A1078431CDBB21370172BB0
:1004500002D9130010221A707047C04614130020EE
:10046000074B9B68103080001950BFF35F8FBFF3BC
:100470005F8F044B0021196082F310887047C046DB
:1004800000ED00E0240100D010B5091A081F0A4B46
:100490009C466144094A914208D8C30706D44010DB
:1004A0004005400D064B184380B210BD054B064A6F
:1004B000A321064801F068FCFC070000FE0F0000C5
:1004C00000E0FFFF50D00310ACD2031080D0031027
:1004D00010B5091A04394C08090B08D14905490D12
:1004E000064A11430180064B2343438010BD054B50
:1004F000054AAB21054801F047FCC04600F0FFFF6C
:1005000000F8FFFFC8D0031080D2031080D0031082
:1005100001238340034A10681840431E9841C0B22B
:100520007047C04600E100E0002904D0034B18608A
:10053000034B18607047034B1860FBE780E200E054
:1005400000E100E080E100E010B5012383401800E5
:10055000FFF7EAFF10BD0000024B9B6810308000DF
:10056000C058704700ED00E070B504000D00EFF3D7
:10057000108672B60C4B1B68002BFBD0BFF35F8F4D
:100580002000FFF7E9FF094B984201D0A84205D1AE
:10059000320029002000FFF763FF70BD044B054ABD
:1005A0008621054801F0F0FB240100D0CD010010A8
:1005B000D8D00310C8D2031080D00310F0B5CE46B7
:1005C000474680B583B006000D00EFF3108872B681
:1005D000564B1B68002BFBD0BFF35F8F544B9A68C0
:1005E00034001034A300D758524B9F4207D0AF427B
:1005F00000D198E00197504BFB1A2F2B09D94246A6
:1006000039003000FFF72CFF03B0C0BCB946B0463C
:10061000F0BD3000FFF77CFF814600213000FFF77E
:1006200093FFBFF35F8FEFF30581002901D08C4268
:1006300011D10123019C9C430022A368AB4212D03C
:100640000622A256002A0DDB53009B189B002200B5
:10065000394CE418F1E73621384B394AFF31394833
:1006600001F092FB2200AB4256D106256557002DC2
:1006700038DB6B005B199A002F4B9B189A68A260BD
:10068000DA79E27106229A56A2719B795BB2002B4D
:100690000FDA2D48A0806B005B199B00264AD31807
:1006A0002A4A11789971157049463000FFF74CFFBE
:1006B000A5E7201D6B005B199B001F4A9B181A1DA4
:1006C0009B88D90A1C2907D15B055B1502335900A9
:1006D0005118FFF7D9FEDDE71D4B1E4AB12119481D
:1006E00001F052FB002912D1002A0ED0FF23937192
:1006F000194B9380154A1378A371184B0E49641A4D
:10070000644163431B0D1370CEE70A4FF2E7201DCF
:100710001349FFF7DDFEC7E76A21124B084AFF3194
:10072000084801F031FB034F69E7C046240100D0BF
:1007300000ED00E0CD01001018130020ECD10310F3
:1007400098D2031080D0031001BD0000363A00207B
:10075000D4D10310B8D2031001BDFFFFAAAA000034
:100760005213002020D2031070B5012101432E4BFB
:10077000CB1A2F2B28D8EFF30583002B2BD0EFF3C8
:10078000108C72B6294A1268002AFBD0BFF35F8F23
:10079000274A0400244D641B64416243120D54B285
:1007A000244A92689B00D2588A421BD00022032A16
:1007B00032D853009B189B001B49CB189B795BB226
:1007C000A3421FD00132F2E7C7211B4B1B4A49004D
:1007D0001B4801F0D9FA92211A4B184AFF311848E8
:1007E00001F0D2FA134A92681749D150174B1A7880
:1007F00082711C70BFF35F8F0C4B00221A608CF368
:10080000108870BD0D005300991889006918FF26E3
:100810008E710F4A8A80E9E7D1210E4B074A4900C1
:10082000074801F0B1FAC04618130020240100D097
:10083000AAAA000000ED00E028D2031064D2031041
:1008400080D0031050D20310CD010010363A0020A2
:1008500001BDFFFF5CD203100022044B02E00449FB
:1008600002C30132072AFAD97047C04600E400E00B
:1008700080808080024B9C46614489000160704703
:100880004000003410B50400FFF7DCFD010020003B
:10089000FFF7F0FFFF232371BFF35F8F10BD10B58B
:1008A0000400FFF7CFFD01002000FFF7E3FFFF2367
:1008B000237100236371BFF35F8F10BD70B5050016
:1008C0000C00080000F04AFE0949200000F08AFDF3
:1008D000FFF7B8FD074B9C466044800068602C75AC
:1008E000D0231B061B786B75A400034BE55070BD2D
:1008F000010C001040000034043800200A4B1A6834
:10090000EFF3108172B61368002BFCD0BFF35F8F3A
:10091000054B1B68BFF35F8F00221A6081F31088BC
:1009200040BF002000217047203A002010B5002968
:1009300022D003681B7B99421ED8174B9C4661440A
:10094000090183689C4661440C684968002A19D0F3
:1009500003681B7B9A4215D883680F48844662441B
:1009600012019A1810685368020001208B4201D8C6
:100970000ED00020C0B210BD084B094A3C210948E6
:1009800001F002FA054B064A3C21064801F0FCF949
:10099000A242EFD8EDE7C046FFFFFF0F64D403107B
:1009A00084D6031020D4031010B500291ED0037B79
:1009B00099421BD84B005B18033B0468A446634470
:1009C000002919D0002A1DD0914221D0002A25D01B
:1009D000047BA24222D804685000801803382018F3
:1009E0008170197800291FD11A7010BD104B114A5F
:1009F0006821114801F0C8F9104B114A6F310E48B7
:100A000001F0C2F90F4B0E4A70210B4801F0BCF9FE
:100A10000D4B0B4A7121084801F0B6F9044B054A09
:100A20006821054801F0B0F941701A70DDE7C04651
:100A300088D40310F0D60310A4D40310FCD4031000
:100A4000CCD6031008D5031014D5031070B50600DA
:100A50000D001400002914D0002A14D08068736897
:100A60009847002806D0220029003000FFF79CFF9D
:100A7000280007E02A0021003000FFF795FF200042
:100A800000E0100070BD0800FCE70000F0B583B086
:100A90000500009201930AAB1C780BAB1F78002C69
:100AA00026D003685A7B944207D10123002B19D129
:100AB000002C3BD1200003B0F0BD002C0CD01A7BE1
:100AC000944209D81A6863001B19033BD3189B781A
:100AD000002BEBD00123E9E73E4B3F4A68213F481A
:100AE00001F052F93E4B3F4A67213F4801F04CF973
:100AF00003689C7B002CDBD012D01A7B94420FD869
:100B000062001219033A19688C466244517899734D
:100B1000002900D1D9730023937053701370C7E775
:100B20002C4B2D4A68212D4801F02EF9002C3AD08B
:100B30002B681B7B9C4236D82C4BE3181B01AA6800
:100B400094466344009A1A60019A5A60089A9A601F
:100B5000099ADA602E68002C2BD030D0337B9C426F
:100B60002DD863001B19033B32689446634400226E
:100B70009A705A701A70717B22003000FFF766FF7E
:100B80007073844200D095E7287D009A019B00F0A5
:100B900071FC061E01D0002F17D00C9B002B00D13A
:100BA00088E71E7086E7124B124A3C210E4801F07E
:100BB000EBF8114B114AA521084801F0E5F8054B67
:100BC000054A6821054801F0DFF82868210000F097
:100BD00089FEE2E788D40310F0D60310A4D40310F2
:100BE0002CD50310FCD6031020D40310FFFFFF0FF9
:100BF00064D4031084D603101CD40310E0D6031071
:100C0000F0B5DE4657464E464546E0B58BB00990F6
:100C1000002308938200B54BD658370052E0B44BFE
:100C2000B44A3F21B44801F0AFF8B44BB44A3C2178
:100C3000B44801F0A9F8002901D1002869D10021A8
:100C4000404600F045FEA04219D12A686B68069222
:100C50000793AB689846EB689A464346002B14D03E
:100C6000002C18D03B681B7B9C4214D8631EFA688A
:100C7000D35C08931B0218433861002015E0A24B97
:100C8000A24A8E219F4801F07FF8A14B9F4A9221F2
:100C90009C4801F079F8994B9E4A4121994801F00E
:100CA00073F800239A46984600207B68BFF35F8F55
:100CB00000221A6086F310884346002B32D10028A8
:100CC00000D10CE100F04AFB02000B1EA7DB002064
:100CD0000021069007917868EFF3108672B60168DC
:100CE0000029FCD0BFF35F8F396888464C7B002C0D
:100CF000D7D09AD0097B8C4297D8874965182D01A7
:100D0000B9688C46654428686968801A9941002949
:100D100091DD2A686B68099800F0ACFB00239A46C5
:100D20009846C2E7089B1B02234399465146180088
:100D3000C04705000E007A68EFF3108B72B6136897
:100D400059424B41D9B2002BF9D1BFF35F8F002E2E
:100D50001EDB002E46DD3B69002B47D04B456DD195
:100D600000F0FCFA02000B1E6EDB52197341002BDF
:100D700070DB002B72DB002104910131039102949E
:100D800051460191414600913800FFF77FFE4CE04B
:100D90003B69002BDDD04B4514D1069A079B521BB3
:100DA000B341002B14DB002B16DB00210491013131
:100DB0000391029451460191414600913800FFF79A
:100DC00065FE32E0554B514AA1214E4800F0DCFF50
:100DD00001225242524BE6E7454B464A3F214648E4
:100DE00000F0D2FF002E01D1002DB4D13B68002CC1
:100DF00050D05A7B944237D1012100294AD1DA7B65
:100E0000002A4DD19A7B002A03D1DA7B002A5AD1DD
:100E10009C73DC73002C5CD03B681B7B9C4258D8D5
:100E2000FA68013C135D0133135500233B617A6876
:100E3000BFF35F8F13608BF3108843E7374B334A60
:100E4000A421304800F0A0FF294B2A4A3F212A481C
:100E500000F09AFF01225242314B8AE7244B254A87
:100E60003F21254800F090FF002C0DD01A7B9442C2
:100E70000AD862001219033A1868844662449278CC
:100E8000002ABAD00121B8E7264B274A6821274813
:100E900000F07AFF264B274AF621244800F074FF21
:100EA000002A0AD0197B8A4207D851008A18033ACF
:100EB00019688C4662445470A4E71A4B1A4A682198
:100EC0001A4800F061FF1C4B1A4AFB21174800F03A
:100ED0005BFF0A4B0F4A41210A4800F055FF0BB057
:100EE000F0BCBB46B246A946A046F0BD043800207F
:100EF00044D3031050D6031060D3031064D40310FE
:100F000084D6031020D4031054D5031068D60310E0
:100F10006CD50310A8D60310FFFFFF0F78D5031080
:100F2000FFFFFF7F88D40310F0D60310A4D4031072
:100F3000B4D50310BCD60310D8D5031010B50C4B94
:100F40005B68002B04D00A210A48FFF793FC10BD10
:100F5000074C2300084A1021206800F0C9FB032039
:100F600000F0F0F903212000FFF7A8FCEBE7C046F2
:100F700060130020203A00202D09001010B5064B08
:100F80005B68002B01D0044810BD044B044A5E216D
:100F9000044800F0F9FEC04660130020ECD50310B1
:100FA00090D6031020D40310F0B5DE4657464E46C7
:100FB0004546E0B58BB0804616001F00149B9A464C
:100FC000159B994616AB1B789B461F2302AA944695
:100FD000634400221A702BE0002809D042461268B0
:100FE000127B904204D8421E4146C9688A5C41E0A7
:100FF000404B414A4121414800F0C6FE07984CE071
:10100000361BAF41002F07DB002F11DA3C4B3D4A66
:101010003F213D4800F0B8FE012676423B4FF3E702
:10102000374B384A3F21384800F0AEFE002F4FDBE7
:1010300043465A68EFF3108472B6136859424B4125
:10104000D9B20791002BF8D1BFF35F8F1F3302AAEB
:101050009446634404930023039302934B46019305
:101060005346009332003B004046FFF70FFD031E3E
:10107000B2D1020041464968BFF35F8F00250D6081
:1010800084F31088002B29D01F2302A98C466344C7
:101090001B78002BB2D112021043002B20D05B46EC
:1010A000002B1DD04946D04704000D0003000B4320
:1010B0001DD00029A4DB00F051F906000F1EAFDBA4
:1010C00036196F41002FB1DA012676420F4FADE796
:1010D0000B4B0C4A3F210C4800F056FE01204042C9
:1010E0000BB0F0BCBB46B246A946A046F0BD07987F
:1010F000F6E7C04664D40310A8D6031020D403102A
:1011000044D3031050D6031060D30310FFFFFF7FBA
:10111000F8B50400002900D162E04268EFF31085C1
:1011200072B6136858424341D8B2002BF9D1BFF3CD
:101130005F8FCBB22268567BB3421BD101200028BF
:1011400048D0206988422BD0090AC9B2002B2ED082
:101150002068007B83422AD8581EE668305C8842AB
:101160002BD000206368BFF35F8F00221A6085F3E5
:101170001088F8BD002B0DD0167BB3420AD85E0054
:10118000F618033E1768BC466644B678002ED6D0E3
:101190000120D4E7134B144A6821144800F0F4FDF1
:1011A0002C21134B134AFF31134800F0EDFD134B74
:1011B000134A4121104800F0E7FD1900100000F02B
:1011C00091FB0028CED199210E4B0A4A49000A48CA
:1011D00000F0DAFD23698B42C4D100232361C1E70B
:1011E0000020C6E788D40310F0D60310A4D403105F
:1011F00010D6031038D6031020D4031064D4031083
:10120000A8D6031034D6031070B584B005000C00C6
:10121000EFF30583002B1ED1FFF7B0FE00230293EE
:101220000193224B00932A002300FFF7BDFE061E08
:1012300023DD20BFFFF7A2FE3100FFF769FF1C4B43
:101240005B6A9C422DD81A4A926AAA422CD29C42CE
:1012500025D0012026E0164B5B6A994209D8144A32
:10126000926A824207D2994201D001201AE00020FE
:1012700018E0002016E0012014E00D4B5B6A9C4250
:1012800009D80B4A926AAA4207D29C4201D0012097
:1012900008E0002006E0002004E0012002E0002039
:1012A00000E0002004B070BD0120FBE7FD08001045
:1012B0000040054070B5EFF305801038EFF3108C57
:1012C00072B61A4B1B68002BFBD0BFF35F8F012255
:1012D0001300834016494B6316490B601649097881
:1012E0000C00C440224214D0114A546A8200134DAB
:1012F0005259944206D38200114C125999430E4B15
:10130000197007E00A4A031D9B0099589950002262
:1013100000E00022BFF35F8F044B002119608CF3C3
:101320001088002A00D0904770BDC046280100D028
:10133000004005403C700540373A0020243A002028
:101340008036002010B50100024A0348FFF750F82C
:1013500010BDC04620D70310353A0020044B5B6A0D
:10136000034A906A1900536A9942F9D17047C046FE
:1013700000400540084B5B6A01E0074B5B6A8B420B
:10138000FBD301E0044B5B6A8B4203D1024B9B6AA7
:101390008342F7D37047C0460040054070B5040053
:1013A0000D00FFF7DBFF02000B0020002900801872
:1013B00059418B4202D804D1824202D901204042D5
:1013C000C117002902DBFFF7D5FF70BD024B034AAE
:1013D0003F21034800F0D8FC44D30310D0D70310BA
:1013E00060D3031070B504000D00EFF3108672B6E1
:1013F0001B4B1B68002BFBD0BFF35F8F002D1CD055
:101400002000FFF7A9F8174B83420BD019002000EA
:10141000FFF7AAF801212000FFF796F80123A34067
:10142000114A1360A400114BE550BFF35F8F0C4BC2
:1014300000221A6086F3108870BDA2000B4B0021B9
:10144000D1500122A2400A490B7893430B70054901
:101450002000FFF7B3F800212000FFF775F8E4E75C
:10146000280100D0B51200103860054080360020F9
:10147000373A0020F0B5DE4600B584B00400150010
:1014800001921E000293FFF769FF03958E4202D876
:101490004ED185424CD9EFF3108B72B6274B1B68A7
:1014A000002BFBD0BFF35F8F254A17780125A5409D
:1014B000EBB23B431370234B5D63221D92000199F5
:1014C000D150A2002049029850501B6A2B4212D1E1
:1014D0001C4B1B6C2B4208D00020BFF35F8F174BB7
:1014E00000221A608BF3108823E0184B184AC5219C
:1014F000184800F049FCFFF731FF8E4214D802D1A2
:10150000039B834210D80E4B1B78BB420ED00D4B71
:101510001D625D631F2004400123A3400E4A136037
:10152000074B1F701E38D8E70020D6E70120D4E70C
:10153000012004B080BCBB46F0BDC046280100D0ED
:10154000373A002000400540243A002044D70310D9
:10155000B4D7031068D7031080E200E0EFF3108CDB
:1015600072B60B4B1B68002BFBD0BFF35F8F0123C0
:101570008340084A136208490A789A430A70BFF305
:101580005F8F034B00221A608CF310887047C046AF
:10159000280100D000400540373A002010B500294E
:1015A0001ED0037B99421BD84B005B18033B046899
:1015B000A4466344002919D0002A1DD0914221D0AD
:1015C000002A25D0047BA24222D80468500080184B
:1015D000033820188170197800291FD11A7010BDA6
:1015E000104B114A6821114800F0CEFB104B114AF4
:1015F0006F310E4800F0C8FB0F4B0E4A70210B48AC
:1016000000F0C2FB0D4B0B4A7121084800F0BCFBF7
:10161000044B054A6821054800F0B6FB41701A707A
:10162000DDE7C04688D40310E0D80310A4D403102B
:10163000FCD40310CCD8031008D5031014D5031024
:1016400070B506000D001400002914D0002A14D033
:10165000806873689847002806D02200290030006F
:10166000FFF79CFF280007E02A0021003000FFF769
:1016700095FF200000E0100070BD0800FCE70000AE
:1016800010B50023437301338373037BC3730123BA
:10169000027B9A4214D9002B0CD0027B934209D8CA
:1016A0005A00D218033A01688C4662440133DBB217
:1016B0005370EDE70B4B0C4A68210C4800F064FBBB
:1016C000002A09D0924207D8016853009A18033AB9
:1016D0008A180023537010BD024B034A6821034847
:1016E00000F052FB88D40310E0D80310A4D40310F8
:1016F00010B5017342608360FFF7C2FF10BD0000A8
:1017000070B50400081E00D170BD002934D0237BC1
:10171000994231D84B005B18033B226894466344DE
:101720005A78002AF0D02DD0237B9A422AD8530031
:101730009B18033B21688C4663445D7800215970F7
:10174000002825D0237B984222D843001B18033B56
:1017500021688C4663440021597001002000FFF786
:101760006FFF060029002000FFF7CAFF02003100CA
:101770002000FFF765FFC7E7084B094A68210948C1
:1017800000F002FB054B064A6821064800F0FCFA0F
:10179000024B034A6821034800F0F6FA88D403108C
:1017A000E0D80310A4D4031070B505000C00160097
:1017B00000292FD034D0037B994231D84B005B18DD
:1017C000033B0268944663445A78002A2ED19A78E3
:1017D000002A31D11978FFF793FF0300002E0AD0B9
:1017E000EA7B002A2ED1AA7B002A03D1EA7B002AB9
:1017F0003BD1AC73EC73002B3DD1002C4FD02B7B35
:101800009C424CD82B6861000C19033C1C19002326
:10181000637070BD254B264A3821264800F0B4FA83
:10182000254B264A6821264800F0AEFA254B204A6F
:101830003A21204800F0A8FA234B1D4A3B211D48BD
:1018400000F0A2FA002A0AD0297B8A4207D8510068
:101850008A18033A29688C4662445470C3E7164BD1
:10186000164A6821164800F08FFA184B104A422198
:10187000104800F089FA002B0BD02A7B934208D83D
:1018800043001B18033B2A689446634400229A7065
:10189000B3E7094B094A6821094800F075FA064B7D
:1018A000064A6821064800F06FFAC046E8D70310E0
:1018B000B8D80310F0D7031088D40310E0D8031071
:1018C000A4D4031034D803105CD80310D8D5031067
:1018D00070B504000A00457B2900FFF765FF6073BF
:1018E000280070BD70B50400002967D0437B8B428F
:1018F0000ED0002911D0037B99420ED84B005B1803
:10190000033B0268D0188378002B0CD1002056E0EE
:101910000121FFF7DDFF012051E0294B294A682111
:10192000294800F031FA002B20D0227B93421DD8A9
:101930005A00D318033B2268D2182568EB5C8B420F
:101940001AD0002B1BD0227B934218D85A00D318F0
:10195000033B2268D21853788B4216D0002BF0D16B
:101960001A4B1B4A6B211B4800F00EFA144B154A08
:101970006821154800F008FA4378137007E0104B0F
:10198000104A6821104800F0FFF943785370002393
:101990008370437001222000FFF706FF0200617B85
:1019A000814205D02000FFF74BFE6073012006E066
:1019B000094B074A7121074800F0E6F9002070BD85
:1019C00088D40310E0D80310A4D403105CD2031011
:1019D000A0D80310F0D7031080D80310F8B5DE4666
:1019E00057464E464546E0B505000F0092460A9A16
:1019F000934250D31A0E91461E020A9A00233000D9
:101A0000494601F0D3FB80466C006419A400304BBA
:101A10009C4664446368834200D260602B1FDBB243
:101A20009B46012B3DD9C0239B01234380221201F9
:101A30001A60AB00274A9958002907D0506901F075
:101A400077FB431C5800C0180338FDD253465A0197
:101A500023685A40E0231A4080235B0123431A6025
:101A60005A46012A28D980239B0123438022120150
:101A70001A6043466360424600233000494601F045
:101A800095FBAD00134B58510120F0BCBB46B2464C
:101A9000A946A046F8BD104B104A3321104800F06B
:101AA00073F9012FBFD1C0239B01234303221A6086
:101AB000A368DB07FCD5C9E72168794003220A4007
:101AC0001A60A2680123BB401342FAD0CBE7C0469C
:101AD0000080004090370020ECD8031050D903104C
:101AE00000D9031030B583B00C2000F00BF9FEF7DD
:101AF0005FFC00280DD0002304E099002D4A2E48F9
:101B000088500133092BF8D92A4B2C4A5A6203B06A
:101B100030BD2B4B00229A6700F0FCF8294B0122C4
:101B20001A60274B5B6C012BFBD1274B03221A60F9
:101B3000234B9B6B012BFBD1013300930433234ACE
:101B40000121234800F04EF805230093214A01218A
:101B5000214800F047F8214B009300220221042085
:101B6000FFF73CFF1E4D00952B00002201210520B0
:101B7000FFF734FF104C00942300002200210720BF
:101B8000FFF72CFF00942300002200210820FFF71C
:101B900025FF0A4B00932300002200210920FFF7B4
:101BA0001DFF00952B00002200210620FFF716FFE5
:101BB000ADE7C04690370020006CDC021BB7000088
:101BC000008000403CB0004030B00040002F685919
:101BD00000800240008C864700C00240001BB70016
:101BE00040597307F0B5C64600B504000E00170053
:101BF0001D00374801F09CFA8046364BFA18364BE8
:101C00009A4239D80100380001F092FA0200103AE5
:101C100098235B009A4235D86B1E062B38D8069B5A
:101C2000013B062B34D83F09474537D32D04069B8B
:101C30001A0315432368002B36DB284B9C4244D003
:101C400080225201264B1A60264B1A60264B9B6855
:101C500011009943FAD12660A060231DC022920191
:101C60001A43212313602368002BFCDAE560082364
:101C7000136080BCB846F0BD1C4B1D4A11211D48A5
:101C800000F082F81C4B1A4A19211A4800F07CF81F
:101C90001A4B174A1C21174800F076F8184B144AC3
:101CA0002321144800F070F822683F231340B34208
:101CB000C3D1A3681B051B0D8342BED1E368EE228E
:101CC000D2021340AB42B8D1D3E780229201B9E7E8
:101CD000001BB70080E84BD380F8A93200C0024057
:101CE00000E0004000F0004000C0004060D9031058
:101CF0008CDA0310C0D9031008DA031024DA0310B9
:101D000070DA031080239B000343014AD3627047BB
:101D100000800540064BAA2212011A602F22DA60C9
:101D2000044B054A1A60024B5B68002BFBDA7047D4
:101D3000004002400060024000B0FA0000BEFDE733
:101D400003000A4A1268002A08D0084A1068C3181B
:101D5000074A9A4206D3054A13607047034A054969
:101D60001160F2E701204042F7E7C046003800204A
:101D700000000420383A0020002070470120404233
:101D8000704710B5FFF7DAFF10B582B00C001900EC
:101D9000002A0CD0084B002A0BD00192009323009C
:101DA0000200064802F08EFB0120FFF7C7FF044B3C
:101DB000F1E7034AF1E7C04698DA0310A8DA031006
:101DC000240E041070B52B4B2B4A1A602B4B2C4A57
:101DD0001A602C4B9A682A4B9343FAD12A4C01E0A3
:101DE00008CC9847294B9C42FAD3FFF77BFE234B44
:101DF000274A1A60234B9B68DB43DB01FAD1254B52
:101E000040229A675A671A67DA66234C09E0234B27
:101E1000234A87212348FFF7B7FF2000FEF732FD52
:101E20000834214B9C4209D22368002BF5D0012BAA
:101E3000EDD12000FEF733FD0834F2E71B4CA1681A
:101E40001B4DC022280002F0AFF9A560EFF3058317
:101E5000002B00D000BEFEF7E5FAFEF7FDFCFFF711
:101E60006DF8144C01E008CC9847134B9C42FAD310
:101E700070BDC04600E00040BFCDFBFE00F000405A
:101E8000FE7F3C0000C00040701E0020801E00202D
:101E9000FFFFFF0100F00140601E0020D8DA0310B0
:101EA00058DB0310F8DA0310701E002000ED00E08C
:101EB00000000020801E0020A41E00200FB400B5EA
:101EC00083B0084802F0CEFA049B002B07D005A986
:101ED0000191180002F0D6FA034802F0C3FA01207B
:101EE000FFF72CFF44DB031054DB03109A4200D2AF
:101EF00088547047704710B5002802D00B684968B5
:101F0000984710BD0100002007E083001B185B000C
:101F1000501C08601078C01830380A681378303BBD
:101F2000DBB2092BF1D97047F0B5DE4657464E4675
:101F30004546E0B583B093461F000C9B9A460D9C26
:101F40000E9B99460F9B9B0703D0B8460F000600D7
:101F500022E00192A34688464E46B9460700B442A5
:101F600007D2551C4B4641462020B84701342A0071
:101F7000F5E73D004F465C46019B9B46B146464611
:101F8000B84637002E0007E0013C551C5346185D4B
:101F900043463900B0472A00002CF5D135003E00F9
:101FA00047460F9B9B0707D4100003B0F0BCBB460D
:101FB000B246A946A046F0BDB0464E46B9462F00EF
:101FC0005D46531BB342EFD2541C4B464146202082
:101FD000B8472200F5E7F0B5CE46474680B585B054
:101FE000944698460C9D0D9C0EAB1B789946109A12
:101FF000119B129EB7071CD4002B0CD0F7070AD5F3
:102000004F46002F02D10C37374204D0013B02E08B
:1020100030272F550134944201D21F2CF8D9F707ED
:1020200007D59C4205D21F2C03D830272F550134E9
:10203000F5E7F70615D5770505D4002C03D09442B3
:1020400024D09C4222D00F9A102A2BD00F9A102A0B
:1020500030D00F9A022A35D01F2C02D830222A55B0
:1020600001341F2C05D84A46002A31D02D222A558A
:102070000134039602930194009543466246FFF7AC
:1020800053FF05B0C0BCB946B046F0BD621E012C7E
:1020900006D00F9F102F01D01400D4E7023CD2E7E6
:1020A0001400D0E7B206D1D41F2CCFD878222A55FD
:1020B0000134D1E7B206CCD51F2CCAD858222A55F4
:1020C0000134C9E71F2CC7D860322A550134C3E751
:1020D000720703D52B222A550134CAE73207C8D527
:1020E00020222A550134C4E7F0B5DE4657464E4655
:1020F0004546E0B593B081468A46089209931CABE9
:1021000010CB1B789B461E9D219B9846002C03D12B
:10211000102342469A4390468023DB0046461E40E9
:1021200042461A4212D0002C22D000260EE0303354
:10213000D9B2771C0AAB99552900200000F0F8FFAE
:10214000AC4216D31F2F14D83E00040029002000F3
:1021500000F0EEFFCBB2092BE9D94246920605D535
:102160004121C918C9B20A39C9B2E2E76121F8E7C9
:10217000270043460693209B05931F9B04930395DA
:102180005B46029301970AAB0093099B089A51465C
:102190004846FFF720FF13B0F0BCBB46B246A94645
:1021A000A046F0BDF0B5DE4657464E464546E0B582
:1021B00095B0089009910A920B931E9E1F9C20AB2C
:1021C0001B789B46229B9946239D269B9A4633006B
:1021D000234303D1103352469A4392468023DB00B7
:1021E00057461F4052461A4219D0330023432DD080
:1021F000002714E03033DAB27B1C98460CABDA557A
:102200004A462B003000210000F0D0FFA5421FD825
:1022100019D043461F2B1BD8474606000C004A46E0
:102220002B003000210000F0C1FFD3B2092BE1D90F
:102230005246920605D54122D218D2B20A3AD2B2FB
:10224000DAE76122F8E7B145E3D901E000239846D7
:1022500053460693259B0593249B04934B46039377
:102260005B460293434601930CAB00930B9B0A9A87
:1022700009990898FFF7AFFE15B0F0BCBB46B2460F
:10228000A946A046F0BD0000F0B5DE4657464E46D2
:102290004546E0B591B083468A460C9298461A9C12
:1022A00008941B9D099522002B002000290001F0B5
:1022B00010FA002800D0E5E001225242D74B20005E
:1022C000290001F001FA002800D0DBE0012252428F
:1022D000D34B2000290001F0E1F9002800D0D1E023
:1022E00000220023089E3000099D290001F0D6F944
:1022F000002800D0DDE00898099906900791802316
:10230000DB001E9A1A400D921E9A1A4201D1062332
:102310001C930698079904000D000A00060002436A
:1023200000D1D1E0080D4005400DBE4CA4466044EC
:102330000A03120BBC4B13431F0001F0DDF9BB4A2B
:10234000BB4B01F060F9BB4ABB4B01F035F904000F
:102350000D000022B94B3000390001F024F9B84AD1
:10236000B84B01F050F902000B002000290001F0E9
:1023700023F901F0D9F9814601F0BEF904000D00FE
:10238000B14AB24B01F03FF90022B14B01F014F910
:1023900001F0CAF90600AF4AAF4B2000290001F056
:1023A00032F904000D00300001F0A6F9AB4AAC4B45
:1023B00001F029F902000B002000290001F0F3F8D8
:1023C00004000D0002000B0001F01DF90A900B91B2
:1023D000A44BF31800261F0522002B002000290023
:1023E00001F0EAF80E900F9122002B0000208021CE
:1023F000C90501F0D8F804000D0000229A4B0A9894
:102400000B9901F0E2F80022984B01F0D5F8020098
:102410000B000A980B9901F0D8F80022944B01F0B8
:10242000CBF802000B000A980B9901F0CEF80200DD
:102430000B002000290001F0BFF802000B000E98ED
:102440000F9901F0C2F80022774B01F0B5F8320085
:102450003B0001F0D8F806000F0004000D00069ABA
:10246000079B01F031F9002830D001235B429C46E4
:10247000E14400227D4B3000390001F0A6F8040051
:102480000D0023E01E9B04931D9B03931C9B029352
:10249000089A099B0092019343460C9A514658466C
:1024A00000F0FCF811B0F0BCBB46B246A946A0460D
:1024B000F0BD0023002406930794069680231B0694
:1024C0009C46654407951AE7002399464B466333BB
:1024D000C62B1ED804261E9B1B0526D52B00234386
:1024E0000FD0644A644B0698079901F0E5F800287C
:1024F00079D00022614B0698079901F0CFF80028A7
:1025000071D01C9B4B4506DD4A46981A431E1C930E
:1025100003E00526DFE700231C938023DB001E9ADF
:102520001A431E920026002399461D9B9E4264D2A8
:102530009F1B02231E9A1A400A921E9A134202D02F
:10254000002E00D000274B46002B07D022002B0086
:102550000698079901F039F80690079100220023A8
:102560000898099901F09AF8002848D1444B1E9A1E
:102570001340049303971C9B0293069B079C0093B4
:10258000019443460C9A5146584600F087F8002EB5
:1025900000D187E71E9B9B063DD54525441C43463D
:1025A000020051462800D8474B46DA179B18534083
:1025B00005220592013E0496002203920A320292FD
:1025C0004A46D00F01900093434622005146584698
:1025D000FFF78AFD0A9B002B00D163E702005F46EC
:1025E0000C9E1D9D54E01C9B002B9ED00D9B002B30
:1025F0009BD01C9B013B1C9397E7002799E7069C07
:10260000079D2200290080200006844661440B00BB
:1026100006920793AAE76525C0E7C046FFFFEF7F54
:10262000FFFFEFFF01FCFFFF0000F03FFB799F5031
:102630001344D33FB3C8608B288AC63F0000F83FDD
:1026400061436F63A787D23F71A379094F930A4013
:102650000000E03F1655B5BBB16B0240EF39FAFE02
:10266000422EE63FFF03000000002C400000244003
:10267000000018402D431CEBE2361A3F80842E41A7
:10268000FFF7FFFF541C434651462020B847220065
:10269000931BAB42F6D3100004E7C046F0B5DE460C
:1026A00057464E464546E0B595B00690079193468D
:1026B0009946209F1E9A1F9B1000190001F009F8EF
:1026C000002831D101225242BF4B1E981F9900F0C1
:1026D000E5FF002837D101225242BC4B1E981F99BA
:1026E00000F0F2FF00283DD10022B94B1E981F993F
:1026F00000F0EAFF002850D10022B64B1E981F9927
:1027000000F0CCFF002848D1002200231E981F991A
:1027100000F0C4FF002850D100239846229B5B059F
:1027200000D4B6E0002458E0229B0393219B02933F
:1027300003230193A84B00934B465A4607990698EA
:10274000FFF7F2FB0EE1229B0393219B02930423EC
:102750000193A24B00934B465A4607990698FFF700
:10276000E3FBFFE00423229A1A4022990B4210D087
:102770009B4B002A0FD004222299039121990291A8
:10278000019200934B465A4607990698FFF7CCFBF7
:10279000E8E0944BEDE70322EEE7229B0493219BB4
:1027A000039302971E9B1F9C009301944B465A462D
:1027B00007990698FFF768FDD4E01E9A1F9B00203A
:1027C000002100F0F0FE1E901F9101239846A5E71E
:1027D0000CAB30221A55013F01341F2C01D8092FB0
:1027E000F6D81E981F9900F09FFF050000F084FFA7
:1027F00002000B001E981F9900F0D5FEFA007A4BDC
:102800009B181A685B680A920B9300F0FCFE089014
:10281000099100F0ADFF060000F06AFF02000B0016
:102820000898099900F0BFFE0890099100226F4BAB
:1028300000F04AFF00282ED00136300000F058FF8B
:1028400002000B000A980B9900F02EFF002801D01F
:1028500001350026002F2CD1280000F04DFF02008A
:102860000B001E981F9900F09EFE06000F0000222C
:102870005E4B00F013FF002846D100225B4B300076
:10288000390000F021FF00283ED1EB073CD501358F
:102890003AE0062746E70022544B0898099900F0D1
:1028A000FDFE0028D6D1002E01D0F307D2D5013687
:1028B000D0E7AA461F2C11D8013F0A21300000F0B2
:1028C00037FC651C30310CAB19550A21300000F083
:1028D0002FFC092E0ED906002C00EBE755461F2CC5
:1028E0000CD87B1E002F09D00CAA302111551F00D7
:1028F0000134F4E72B0055461C00F0E71F2C03D8E9
:102900000CAB2E221A5501341F2C10D80A21280096
:1029100000F0E6FB661C30310CAB19550A2128008B
:1029200000F0DEFB051E01D03400EDE73400032388
:10293000229A1340012B1CD01F2C06D84346002B93
:1029400032D00CAB2D221A550134229B0393219BCC
:10295000029301940CAB00934B465A460799069894
:10296000FFF7E2FA15B0F0BCBB46B246A946A04656
:10297000F0BD219B002B13D04346002B02D10C331A
:1029800013420FD0219B013B2193190003E00CABB4
:1029900030221A5501348C42CED21F2CF7D9CBE706
:1029A0002199F8E72199F6E7229B5B0704D50CAB48
:1029B0002B221A550134C8E7229B1B07C5D50CAB47
:1029C00020221A550134C0E7FFFFEFFFFFFFEF7F22
:1029D00065CDCD4165CDCDC174DB031078DB03102F
:1029E0006CDB031068DB031060DD03100000E03FC8
:1029F000F0B5DE4657464E464546E0B593B08246B2
:102A00008B4690461193002900D1EBE200275546F2
:102A1000119B1878002800D1E7E2252809D07C1CFA
:102A200043463A005946A847119B013311932700AA
:102A3000EEE7013311930024119A11780B00203B2B
:102A4000D8B2102803D88300D048C3589F460B0043
:102A5000303BDBB2092B2CD92A292FD000230A9333
:102A6000119B1A782E2A39D000239A46119A13788E
:102A7000683BD9B2122976D88B00C549CB589F46FE
:102A800001231C4301321192D6E702231C43013279
:102A90001192D1E704231C4301321192CCE70823A1
:102AA0001C4301321192C7E710231C4301321192DB
:102AB000C2E711A8FFF726FA0A90D1E71C9B1A1D5E
:102AC0001C921868002804DB0A90119B01331193B3
:102AD000C6E702231C4343420A93F6E78022D20052
:102AE00014435A1C11925A781300303BDBB2092B65
:102AF00004D92A2A07D000239A46B7E711A8FFF77E
:102B000001FA8246B2E71C9B1A1D1C921868002825
:102B100004DB8246119B01331193A7E70020F8E7FD
:102B200080235B002343511C119152786C2A01D001
:102B30001C0018E0C0239B001C430131119112E0DE
:102B400080232343511C11915278682A01D01C0024
:102B500009E0C0231C430131119104E080235B0094
:102B60001C4301321192119B18780300253BDAB205
:102B7000532A00D92CE29300864AD3589F468023DB
:102B80009B001C4301321192EDE780235B001C4344
:102B900001321192E7E7782809D0582838D06F28F9
:102BA00038D0622838D010239C430A2600E0102633
:102BB000582833D0692803D0642801D00C229443CC
:102BC000630501D50122944369282AD0642828D0BE
:102BD000A30500D59FE0E30500D5B8E0630600D467
:102BE000CAE01C9A111D1C911168FF220A4005942D
:102BF0000A9B049353460393029600230193009289
:102C000043463A0059462800FFF76EFA070027E0CE
:102C10001026CDE70826CBE70226C9E72022144379
:102C2000C8E7A30520D4E30550D4630666D51C9AF3
:102C3000111D1C911168FF220A40D317D118594069
:102C400005940A9B0493534603930296D20F019274
:102C5000009143463A0059462800FFF745FA07001D
:102C6000119B01331193D3E61C9BDA1D07218A4384
:102C7000110008311C91116853689C46DB170C93B6
:102C80000D930C9A0D9B100048400E9062465340E5
:102C90000F930E980F990C9A0D9B801A99410E90E4
:102CA0000F9108940A9B07935346069304960023BA
:102CB00005936346DA0F02920090019143463A0071
:102CC00059462800FFF76EFA0700C9E71C9A111D44
:102CD0001C911268D317D118594005940A9B04938C
:102CE000534603930296D20F0192009143463A0055
:102CF00059462800FFF7F8F90700B1E7230605D584
:102D00001C9A111D1C910023D25E96E71C9A111D7E
:102D10001C91126891E71C9BDA1D07218A43110060
:102D200008311C9108940A9B079353460693049616
:102D3000002305930293136854680093019443465B
:102D40003A0059462800FFF72DFA070088E71C9A39
:102D5000111D1C9105940A9B0493534603930296FC
:102D6000002301931368009343463A005946280014
:102D7000FFF7BAF9070073E723060DD51C9A111D5A
:102D80001C9112681204120C31E7C04680DB03105C
:102D9000C4DB031010DC03101C9A111D1C91126877
:102DA00025E746281AD01C9B0733072293431A00B5
:102DB00008321C9204940A9A0392524602925C686A
:102DC0001B680093019443463A0059462800FFF7D8
:102DD00065FC0700119B0133119319E620231C4366
:102DE000E1E7672801D0472802D180231B011C435B
:102DF000452801D0472801D120231C431C9B0733C1
:102E0000072293431A0008321C9204940A9A0392F0
:102E1000524602925C681B680093019443463A0054
:102E200059462800FFF730FA0700119B0133119330
:102E3000EEE502231A002240924623421FD00124CD
:102E40001C9B1A1D1C927A1C9146187843463A0026
:102E50005946A8475346002B16D1119B01331193B5
:102E60004F46D5E5561C434659462020B847230017
:102E700032005C1C9D42F5D83D001700E0E70123BD
:102E80003A002F000A9DF4E74A46A9460A9D06E04B
:102E9000571C434659462020C84734003A00661C58
:102EA000A542F5D84D469146D7E71C9B1A1D1C92AA
:102EB0001B6899465346002B00D1013B4E4601E06A
:102EC000013613003278002A02D05A1E002BF7D1A7
:102ED0004B46F21A10928023DB0026001E401C4253
:102EE00003D0524501D95346109302231A002240C1
:102EF0000B92234205D03A0037004C46A94655466E
:102F000020E03A00109B5F46B3462E0006E0551CB9
:102F1000434639002020B04723002A005C1C0A9950
:102F20009942F4D835005E46BB46109437004C46B3
:102F3000A946554606E01D000134561C4346594635
:102F4000C84732002078002804D0002FF4D06B1E30
:102F5000002DF0D117004D460B9B002B03D1119B88
:102F60000133119354E50A9F109B06E0561C43461B
:102F700059462020A847230032005C1C9F42F5D808
:102F80001700ECE721231C431C9B1A1D1C921B6895
:102F9000009305940823049353460393102302934C
:102FA0000023019343463A0059462800FFF79CF856
:102FB0000700119B013311932AE57C1C43463A001C
:102FC00059462520A847119B0133119327001FE57F
:102FD0007C1C43463A005946A847119B0133119384
:102FE000270015E50A4B9A4610E5AA46474502D345
:102FF00043465A1E00E03A00434659460020D04757
:10300000380013B0F0BCBB46B246A946A046F0BD9E
:10301000F51E00100EB410B585B0010007AC08CC49
:1030200003940122009452420348FFF7E1FC05B0EB
:1030300010BC08BC03B01847ED1E001000B583B0EB
:10304000009313000A0001000248FFF7D1FC03B00F
:1030500000BDC046ED1E001000B585B00290039182
:103060000121009313004A4202A90248FFF7C0FC65
:1030700005B000BDF71E001001480421014B1847A0
:1030800090130020A930001010B5010018231B88F0
:1030900014221088984710BD10B5010018231B8812
:1030A00016221088984710BDF0B5C64600B5070037
:1030B0000E0000250123984600E00135B5420AD2F2
:1030C000AC003C192068FFF7DFFF20600028F4D136
:1030D00000239846F1E7404680BCB846F0BD0000AA
:1030E000124A936F9B0815D29066D166002905D0CD
:1030F000FFE7FFE7FFE7516F106F704704B58021CE
:103100000906C2175140002800D0C84339F04CFFCF
:10311000002104BDF0B5146E556E576F166FFFF7A2
:10312000E3FF1466556657671667F0BD000000D0D0
:10313000114A936F9B0813D210665166002905D07F
:10314000FFE7FFE7FFE7516F106F704704B50028F6
:1031500001D00020C04339F027FF002104BDC04644
:10316000F0B5146E556E576F166FFFF7E5FF1466D6
:10317000556657671667F0BD000000D094464A4A6E
:10318000926F9208624601D228E0C046F0B5464EE2
:10319000346E756E776F366F00F020F89446424AB1
:1031A00014665566576716676246F0BD94463E4AF8
:1031B000926F9208624601D254E0C046F0B53A4E92
:1031C000346E756E776F366F00F04CF89446364A61
:1031D00014665566576716676246F0BD002B24DB00
:1031E00011D000293EDA00B5C943404200D1013177
:1031F00000F038F8C943404200D10131DB4352426C
:1032000000D1013300BD002AEBD1002801D10029F3
:1032100005D00020C90FC90701D1C043410800B53E
:1032200039F09AFE0022002300BD00B500290ADB18
:10323000DB43524200D1013300F014F8C94340424D
:1032400000D1013100BDC943404200D10131DB430F
:10325000524200D1013300F005F8DB43524200D165
:10326000013300BD002923D1002B18D1002A0CD036
:10327000BC460D4F38667A6600210023FFE7FFE762
:10328000FFE77A6F386F67467047002801D007481C
:10329000010000B539F060FE0022002300BD0200ED
:1032A0000B00002000217047000000D0FFFFFFFF4F
:1032B000002B00D0BFE0130C28D1002AE7D080B447
:1032C000114F39667A66FFE7FFE730B4040C7B6F75
:1032D000396F1B0423433B667A66FFE7FFE7FFE78E
:1032E000C04684B27B6F3D6F1B0423433B667A6606
:1032F000FFE7FFE7C04600232C042D0C7A6F386FE0
:1033000000196941B0BC7047000000D0F0B5944688
:103310000025140E01D112020835140F01D112013B
:103320000435940F01D192000235D40F01D152001F
:103330000135D40B0134254F7C66254C3C660E0CC0
:1033400093B2FFE7FFE7FFE73C6F6643360C770376
:10335000BE467343DF0B5B04C01AB941130C7343C1
:10336000DB18C91ACE086643360CB64493B27343D1
:103370001F0F1B01C01AB941130C73431F0B1B0510
:10338000C01AB941860D8F023E436643360C092DA3
:1033900024DB520A7243801A7703460A6643360CCE
:1033A00016235B1BDE40DF40BF1964466643821B69
:1033B0007046043506330100D940A840C01900D337
:1033C0000131A24206D20023F0BD0000000000D06F
:1033D000FFFFFFFF121B0130F3D3F1E709277F1B2B
:1033E000FE406446A2B27243801A00D20139220C18
:1033F0007243130C1204821A99410B007046043573
:1034000013370100F940A840801900D30131002B87
:1034100002D1A2420AD2F0BD013000D30131121B09
:10342000FAD2013BF8D1A24200D2F0BD013000D364
:103430000131121BF7E7F0B51C0C00D080E00CB492
:1034400000251C0A04D11B02160E33431202083554
:103450001C0B04D11B01160F3343120104359C0BC6
:1034600004D19B00960F334392000235DC0B02D14E
:1034700092185B4101351C00971864410134464F96
:103480007C66464C3C660E0CFFE7FFE7FFE7C04654
:103490003C6F6643360C7703BE4697B27743C01B3A
:1034A00000D20139C01B00D201399FB27743C91B3A
:1034B000C91B170C77437E04FF0B801BB941CE0854
:1034C0006643360C0C2D33DBB644120B1F053A4312
:1034D0001B0B97B27743C01B00D201399FB27743D1
:1034E000C91B170C77433E043F0C801BB941860D66
:1034F0008F023E43664329277F1BFE400C3D7746E3
:10350000AF40BF1930BCA2B2ABB272437343801A52
:103510009941220C7243130C1204801A9941020043
:103520000B000137001BA941F9D2781E0021F0BD24
:103530000C277F1BFE4077467F0BAF40FF19E0E76B
:1035400000245D1C07D0144F7D663966FFE7FFE756
:10355000FFE7FFE73C6F95B29EB265436643401BB1
:10356000B141150C1E0C6543664336042F0C3E43D7
:103570002D04401BB141994204D202000B002000EF
:103580000021F0BD01D19042F7D3801A9941013456
:103590009942F2D3F6E70000000000D0FFFFFFFFE2
:1035A00048404140484018B41B4B5B68FC460193BF
:1035B00008BD04DF1339001018B4174B1B68FC4614
:1035C000019308BD00DF1D3900109446134A926F25
:1035D000920809D2624618B40F4BDB68FC4601938F
:1035E00008BD0CDFD53B00100C4AF0B5146E556ECB
:1035F000576F166F6246FFF7EEFF084A146655666E
:1036000057671667F0BD18B4034B9B68FC460193DF
:1036100008BD08DF793A00101C380020000000D0F7
:10362000FFB550404240504059404B40594000E0A7
:10363000FFB5154F4C00640D03D0BC4204D10C0300
:1036400014D80020090D09055C00640D03D0BC42AC
:1036500004D11C030AD800221B0D1B0501264B4078
:1036600009D44B4003D58B4200D18242FFBD994221
:10367000FCD19042FFBD0B43DB1803431343F5D04D
:10368000C9434918FFBD0000FF07000000B5FFF760
:10369000CFFF01D0002000BD012000BD00B5FFF725
:1036A000C7FF804100BDC04600B5FFF7C1FF01D98B
:1036B000002000BD012000BD00B5FFF7B1FF01D91A
:1036C000002000BD012000BD00B5FFF7A9FF80412B
:1036D00000BD012040054A00121804D85A001218F3
:1036E00001D800207047012070470020704700007B
:1036F0000021002805D17047C1174840401AFAD070
:10370000C90713B5064B1B6898470CBC441CA24064
:103710001005120B0349091B09051943114310BD7C
:103720001C3900201F04000010B54C00620D8023DE
:10373000D218DB00D21A5B057E2A10DD9E3A13DA1E
:10374000CC170903490819435242D140640001349F
:103750001532202A05DAD0400843604310BD00200E
:1037600010BD0846604310BDC80FC018013810BD19
:1037700018B4044B5B6AFC46019308BD24DF853D09
:10378000001000001C38002018B4044BDB6DFC4610
:10379000019308BD5CDF913E001000001C38002042
:1037A000C94211D300B549004908002200F018F8B9
:1037B000002904D4002240428A41114600BD8021E4
:1037C0000906002000BD000018B4044BDB6EFC4667
:1037D000019308BD6CDF933D001000001C380020F1
:1037E00018B4044B9B6FFC46019308BD78DFAF3DD6
:1037F000001000001C38002018B4044BDB6FFC469E
:10380000019308BD7CDF1D3E001000001C38002025
:1038100070B513231C78012C14D0012C14DC022C5D
:1038200002DC1F4A1F4B9A641F48FFF72DFC1F4BF9
:10383000186070BD99001A481A4A885001331F2B2E
:10384000F8D9EAE70023FAE71948FFF725FC050055
:103850001848FFF721FC023803789B007F2B19DD05
:10386000802229000F4800F09FFC022CD7D1124B78
:103870001A88B5231B029A4209D1104B1A88104BA3
:103880009A4204D10F4B1A880F4B9A42C7D000209E
:10389000FEF714FB0D4B0E4A32210E48FEF774FA68
:1038A000D93800101C3800204C3300001C3900208F
:1038B000534400005346000054380000D83800003C
:1038C000494600009C38000059460000B0DD031056
:1038D00058DE031004DE031007B56046002800D14F
:1038E00000BE01880A0A0230DF2AFAD1C9B2820872
:1038F00004D3028840880004104300E00068024AB4
:103900005050039007BD00001C3800200FB403BCCA
:103910000CBCF0B50124E407634000E0F0B50C0DE9
:10392000CF0F661E3605891B640503D3C943404289
:1039300000D30131640D03D0661CF60A07D0E41BE6
:1039400000207F00791C89078912803C24031D0D0B
:10395000DF0F6E1E36059B1B6D0503D3DB43524202
:1039600000D301336D0D03D06E1CF60A07D0ED1B9A
:1039700000227F007B1C9B079B12803D2D032F1B89
:10398000661B58D4A446202E46DA20371400BC40CB
:103990001D00BD40F24033412A4380185941CB0FEE
:1039A00005D0C943C04300226442504151416246A0
:1039B0004D0D28D10D0D07D100281FD024194041ED
:1039C0004941013A0D0DF9D0640006D3013000D30E
:1039D0000131002C01D140084000013A0BD4941C65
:1039E000E40A04D112051144DB071944F0BDD907DC
:1039F000204B194300E0D9070020F0BD0029DDD19C
:103A0000002CDBD1F0BD0132C6074008CD072843AA
:103A10004908002EE1D0D9E73C2E29DA203E403774
:103A20001400BC4000D00124F24014431A00BB40F3
:103A30001C43D317ACE7AC46202F08DA203604002D
:103A4000B4400D00B540F84039412843A5E73C2F6C
:103A50000CDA203F40360400B44000D00124F84086
:103A600004430800B1400C43C117EAE710001900F5
:103A7000002494E70000F07FF0B50C0D661E3605BB
:103A8000891BE60A6405640D02D0651CED0A04D0AA
:103A9000002001210905803C2403A4461C0D671E5B
:103AA0003F05DB1BE70A6405640D02D0651CED0AC7
:103AB00004D0002201231B05803C2403774064448A
:103AC00097B484B296B27443070C7E43150C6F43CF
:103AD00080B26843361802D3012000043F18300436
:103AE000350C00197D41844688B29AB250430C0CC3
:103AF00062431F0C7C438EB27E43921902D301268F
:103B00003604A4191604170C3618674101BC81B29B
:103B10009AB25143040C62431B0C5C4380B258437D
:103B2000121802D30120000424181004130C4018AA
:103B300063412D185E410020474106BC88B293B214
:103B400058430C0C6343120C544389B251435B1825
:103B500002D301210904641819041A0C09186241DE
:103B60006D1856410020474118BCF902720D1143EF
:103B7000F0026A0D1043ED020A0D03D16D194041A8
:103B80004941013B124E9B1B7600B3420ED26D00A1
:103B900007D30130002671416646354301D1400804
:103BA00040001B05C918E4072144F0BD0BDA0133BE
:103BB00006D1013004D101314F0D01D04908F2E79F
:103BC000E1070020F0BD013631050020EBE70000E1
:103BD000FF030000F0B51C0D671E3F05DB1BE70A65
:103BE0006405640D02D0661CF60A04D0002201238D
:103BF0001B05803C2403D0252D060026F6432E66A7
:103C00001E096E66CE0FF619B44649004F0D02D05C
:103C10007E1CF60A03D000200021403F3F033E1BDC
:103C2000B600B444013F7F05C91B49082E6F013619
:103C300076089C02950D25437543ED137543AD132E
:103C400001356D10F603761B0CB4CC02450D2C43E8
:103C5000A2B2B3B25A43270C7B43350C6F43A4B2D4
:103C60006C431B1902D3012424043F191C041D0CAE
:103C7000A4187D4124196D41009A91B2ACB2614300
:103C8000170C7C432B0C5F4392B25A43A41802D307
:103C900001221204BF182204230C52187B41019CFC
:103CA0006C431B19520ED9010A434401A01A81B278
:103CB000B2B2514303145A43360C734387B277436D
:103CC000D617D21900277E4136049B191704160C0B
:103CD0007F185E417316ED18F3010026803375419D
:103CE000A90F06D16400690AE8055B0A184309D2E6
:103CF0002FE00422944480337541A90AA8059B0A49
:103D0000184326D3404149412404009A019B0D00E9
:103D10005543641B4343E41A95B286B27543170CAE
:103D20007E43030C5F4392B25A43B61802D301227A
:103D30001204BF183204330C52197B4152429C4189
:103D4000002C02D40022013051414008CA07104320
:103D5000490802B06246D7079210084BD218084BA8
:103D60009A4203D212058918C919F0BD0020002A11
:103D700001DC3900F0BD01331905F5E7FD03000052
:103D8000FE070000002200B5203200F010F8080005
:103D900000BD002200B500F00CF8CA179A4200D10D
:103DA00000BDD8430121C907414000BD00220B15C9
:103DB0000AD410B5944600F0A7F81414013400DAC0
:103DC0000021CB17144C204700200021704762448B
:103DD000343A0CD40C2A07DA040091409040524245
:103DE0002032D440214310BDD843D94310BD2032E6
:103DF00007D40C469440524220321141D040204317
:103E000010BD0800C917203203D45242203210419D
:103E100010BD1800190010BDCF3D00104A00520D12
:103E2000144BD21A13DDFF2A1EDAD205CB0FDB07A3
:103E30001A43C300400F0903490A084310435B00BB
:103E400001D301D0013070474308FBD2704702D044
:103E5000C80FC00770470A0312130132F8D1420F8E
:103E6000072AF5D1012200E0FF22C80F00028018C6
:103E7000C00570478003000000210A00002104E013
:103E800000210A00C11704E00022002306E0C0461A
:103E90000022CB1758405940C01A994130B5184CF0
:103EA000A21A002903D1010010D00020203A4C159D
:103EB00012D104D2013A001849414C0DFAD3114CE9
:103EC000A24204D212058918DB07C91830BDD243BB
:103ED000520D00200021F5E703D4013A00184941B2
:103EE000FBD50B324405C00A4D052843C90A6400BE
:103EF00003D0002460416141E1E7E0D34408F8E7E2
:103F000032040000FE0700000A0DCC0F531E1B05F3
:103F1000C91A520503D3C943404200D30131520D9F
:103F200003D0531CDB0A07D0121B00206400611C65
:103F300089078912803A1203014BD21A7047000098
:103F4000FF03000051434343C9188C46110C83B250
:103F50004B4310B4040C614392B280B250436243AD
:103F60001C041B0C001910BC59411304120CC0187E
:103F7000514161447047000007B548404140484006
:103F800001E0C04607B54200120E03D0FF2A03D15C
:103F9000420218D8C00DC0054A00120E03D0FF2AF5
:103FA00003D14A020FD8C90DC9050122414005D4E9
:103FB000414001D5814207BD884207BD01434918F0
:103FC00001D0C043001807BD00B5FFF7DBFF01D0EB
:103FD000002000BD012000BD00B5FFF7D3FF01D9CF
:103FE000002000BD012000BD01231B064200D218A5
:103FF00004D84A00D21801D8002070470120704729
:1040000070B513231D782A48FFF746F80400012DE8
:1040100011D0012D09DDA31E1B789B007F2B40DDF5
:1040200080222100234800F0BFF82348FFF72CF836
:10403000224B186070BD542201001E4800F0B4F8F5
:104040001F4B1A881F4B9A421CD1A7239B011A8829
:104050001D4B9A4216D11D4B1A881D4B9A4211D105
:104060001C4B1A8894239B019A420BD11A4B1A8835
:104070001A4B9A4206D11A4B1A681A4B9A4201D12E
:10408000152307E01848FDF719FF99001748094A5A
:10409000885001331F2BF8D9144A064B1A62DA6193
:1040A000B7E7134B134A42211348FDF76DFEC04694
:1040B00053460000203900204C3300001C390020FA
:1040C000EE290000C40F0000C20D0000962B000076
:1040D000C0B50000182B0000CC2A000010B500006D
:1040E000FC2C000051ED8764240E0410FD400010EC
:1040F0006CDE0310F4DE0310A0DE031007B560468B
:10410000002800D100BE01880A0A0230DF2AFAD155
:10411000C9B2820804D3028840880004104300E03A
:104120000068024A5050039007BD0000203900206B
:1041300070B504000A4E300038F076FF20002CF0F5
:1041400053FB0500300038F0FFFE002D05D02C1980
:10415000044B9C4201D8280070BD0348FDF7AEFE19
:10416000601E00200000042008DF031070B504006A
:10417000054D280038F058FF20002CF03FFB2800A8
:1041800038F0E2FE70BDC046601E002001480421E8
:10419000014B1847A0130020A9300010014B1B68E9
:1041A00018470000A0130020014B5B68184700006F
:1041B000A013002010B5FFF7BBFF10BD10B5FFF72F
:1041C000B7FF10BD10B5FFF7D1FF10BD10B5FFF759
:1041D000CDFF10BD10B5FFF7C9FF10BD10B503002E
:1041E000080011001B68984710BD10B503000800B7
:1041F00011001B68984710BD70B505000368002BBF
:1042000016D00C4B1C6805E0290004C92000FFF7FC
:10421000ECFF2469002C09D02368002BF9D0064B51
:104220001B68002BF0D0A342F3D1EDE700232B60F5
:1042300070BDC046F8370020FC37002070B505007F
:104240000C000B68802B05D021684B1C2360641880
:10425000257170BD0800FFF7CFFFF5E7F0B583B01B
:1042600007000E000092019328E0A368002B04D001
:10427000310038009847002827DC2469002C06D03C
:10428000134B1D68002DF0D0A542F6D1EDE7009943
:10429000019A104B5B6A9A4209D80E48806A88429C
:1042A0000FD29A4201D0012302E0002300E0002354
:1042B000002B08D101200021FDF770F8064B1C6887
:1042C000DCE70123F4E70120404203B0F0BDC04623
:1042D000FC37002000400540F837002010B5FDF7FE
:1042E0003DF802000B1E0BDB0D48002112184B415C
:1042F000002B0BDB002B0DDB0A4838F075FE10BDE0
:10430000094B0A4A3F210A48FDF73EFD012252426D
:10431000084BEFE7044B054A3F210548FDF734FD04
:1043200040420F00681E002044D3031078DF0310C2
:1043300060D30310FFFFFF7F10B5024838F004FE82
:1043400010BDC046681E0020F0B5CE46474680B579
:1043500083B006000D0090461C00FFF7BFFF8146AA
:104360006B1C05D0002C08D0194F1A4B1C6807E0B5
:1043700030002EF0E1FA0500F4E7174FF5E7246965
:10438000002C17D02368002BF9D0144B1B68002B8E
:1043900001D0A342F3D12A0031002000B8474346A0
:1043A000002BECD06B46D91D0A230B700122200094
:1043B000B847E4E74B46002B07D16B1E9D41E8B29E
:1043C00003B0C0BCB946B046F0BDFFF7B5FFF4E797
:1043D000DD410010F8370020EB410010FC370020D1
:1043E00010B5030008001100002B05D1044B1A681A
:1043F0005B68FFF733FF10BD01204042FBE7C0467A
:1044000018D7031010B5030008001400013B012B5E
:1044100006D8002300222100FFF796FF200010BDE0
:1044200001204042FBE7012040427047012040420A
:1044300070470120404270470300002002229A4248
:104440004041704710B5064B1C6801E0984724694D
:10445000002C03D06368002BF8D1F8E710BDC046EC
:10446000F837002070B505002EF066FA040000232E
:10447000012201002800FFF767FFFFF7E3FF20009C
:1044800070BD000070B5A2B004000E00FFF726FF5B
:104490000500002301933300220001A90848FEF71C
:1044A000DBFD040001A8FFF7A7FEFFF7CBFF002DFF
:1044B00002D1200022B070BDFFF73EFFF9E7C046F1
:1044C0003D4200100FB400B583B004A901C90191A9
:1044D000FFF7D8FF03B008BC04B0184710B5024876
:1044E00000F004F810BDC0461438002070B588B044
:1044F000040004AD002604960922002105A8FFF758
:104500004DFE00960922002101A8FFF747FE4B232C
:104510002B700D226946280038F00EFD002304E0C0
:104520005A1D69468A5CE2540133072BF8DD08B056
:1045300070BD0000F0B5DE4657464E4645460122A6
:10454000E0B5DF4F00243800DE4B83B01A70DE4B3D
:104550007C6098461B681C309D68DC4BBC603B60EF
:10456000FC603C617C61BC619B4601F0E7F8D84B84
:10457000D84E9A463B6001235B4299467B62434694
:104580001B683D625D6830005B4674603360B460F8
:10459000F46034617461B4611C3001F0CFF85346AB
:1045A00033604B46736243463562CB4D5A46280012
:1045B0001B682A60DB686C60AC60EC602C616C612D
:1045C000AC611C30019301F0B9F8019B52462B629B
:1045D0004B466B62C14B2A609946180012F04EFEA2
:1045E0004B4678221C67043B9C5208329C50043294
:1045F0009C5004329C50DC67B94C390022001432C4
:1046000048461C605A6012F0BFFDB64F380012F0E9
:1046100035FE3B0000227C21083B5A5204315A509F
:1046200004315A5004315A5004315A50AE493800BE
:104630001960143199603A6731005A6012F0A4FD94
:10464000AA4E300012F01AFE00227821331F5A526F
:1046500008315A5004315A5004315A503267B26707
:1046600022001432290030001C60326012F08CFDF0
:104670009F4E300012F002FE00227821331F5A5262
:1046800008315A5004315A501C60043114345A50C5
:10469000300029003267B267346012F075FD802265
:1046A0009449954B92019967944B954F18695967B6
:1046B00002431A614346002438001B687C609D68F1
:1046C000904BBC603B60FC603C617C61BC611C3019
:1046D0009B4601F033F88C4B8C4E9A463B6001238D
:1046E0005B4299467B6243461B683D625D683000D1
:1046F0005B4674603360B460F46034617461B461CB
:104700001C3001F01BF8534633604B46736243463E
:104710001B683562DB687E4D984628005B466C60FE
:104720002B60AC60EC602C616C61AC611C3001F002
:1047300005F853462B6043462B624B466B62754B24
:104740009846180012F09AFD43467C221C675C676D
:10475000043B9C5404329C5004329C5004329C50C4
:1047600004329C506C4C39002200143240461C60CC
:104770005A6012F06DFD694F380012F07FFD3B006A
:1047800000228021083B5A5404315A5004315A50B7
:1047900004315A5004315A506149380019601431BB
:1047A00099603A6731007A675A6012F051FD5D4EA8
:1047B000300012F063FD00227C21331F5A54043173
:1047C0005A5004315A5004315A5004315A50326709
:1047D000726722001432290030001C60326012F02F
:1047E00037FD514E300012F049FD00227C21331F6D
:1047F0005A5404315A5004315A5004315A501C60F2
:10480000043114345A503000290032677267346022
:1048100012F01EFD80224549454B92019967454B98
:104820001869596702431A61434A136801331360D8
:1048300003B0F0BCBB46B246A946A046F0BD2D4B26
:104840003E4A48465A6012F057FD27F07FFF3C4B26
:104850003C4A30005A6012F04FFD27F077FF354B8D
:10486000384A30005A6012F047FD27F06FFF304B96
:10487000344A38009A6012F03FFD27F067FF2B4B57
:10488000304A40465A6012F037FD27F05FFF2E4B4A
:104890002A4A30005A6012F02FFD27F057FF174BBD
:1048A000264A30005A6012F027FD27F04FFF124BC6
:1048B000224A38009A6012F01FFD27F047FFC046D9
:1048C000C02F0020B0130020481400203C0E04101C
:1048D000C4030410702F0020982F0020B033002054
:1048E000140D04100C3200209005041098320020A2
:1048F00024330020AC330020043200209432002006
:10490000383000207C0E041004040410E82F00202E
:1049100010300020F0350020440D041040340020F9
:10492000C0050410D034002060350020EC35002094
:1049300038340020CC340020D0310020E0040410B2
:104940005C350020F004041020330020064A10B526
:1049500013680400591C1160002B01D0200010BD09
:10496000FFF7E8FDFAE7C046D0310020104A10B545
:1049700013680400591E1160022B01D0200010BDE5
:104980000C481CF093FC0C481CF090FC0B481CF0ED
:104990008DFC0B481CF064FE0A481CF061FE0A48BE
:1049A0001CF05EFEEAE728F06DF828F0A5F8E5E7D0
:1049B000D0310020AC33002094320020203300207E
:1049C000EC350020CC3400205C3500207047C04618
:1049D00010B50400FFF7F6FB200010BD044A0B6879
:1049E00012680360934202D01A6801321A6070475D
:1049F000503100200160704710B5064C2068002837
:104A000000D010BD20000022034929F021FA2068BF
:104A1000F7E7C0465831002004E103100048704712
:104A200004E10310416870B50500002916D08368C1
:104A3000002B10D00024354EA2005058002805D07D
:104A400043685A1E4260012B36D0AB680134A34242
:104A5000F2D8002902D00800FFF7B8FBE968002966
:104A600016D0AB68002B10D00024284EA20050585E
:104A7000002805D043685A1E4260012B24D0AB6841
:104A80000134A342F2D8002902D00800FFF79EFBB0
:104A90002B690024002B0DD01859002802D0FFF7F5
:104AA00095FB2B690434182CF6D1002B02D018008A
:104AB000FFF78CFB280070BD03685B68B3420BD125
:104AC000FFF780FB6968C0E703685B68B34206D103
:104AD000FFF778FBE968D2E798476968B5E7984738
:104AE000E968CCE727F0CEFF28F006F86968ACE764
:104AF00027F0C8FF28F000F8E968C0E74B1C02D196
:104B000027F040FFFAE727F021FEC046D149001008
:104B10000A4B70B51B68056804009D4204D02B68E1
:104B20005A1E2A60012B01D0200070BD2800FFF71B
:104B300079FF2800FFF746FBF6E7C046503100201A
:104B40000E4A0B68126870B504000D00934202D043
:104B50001968013119602668B24204D03268511ECA
:104B60003160012A02D02000236070BD3000FFF7C1
:104B700059FF3000FFF726FB2B68F4E75031002087
:104B8000F0B54E46DE4657464546E0B583B0161EA4
:104B9000009000D1E6E00C68002C04D1A84B1A6804
:104BA000541C1C600C60009A671E9368013BBB425A
:104BB0005FD2E31C9A4653689B46A24B9A4500D8A5
:104BC000DCE001235B4299464846FFF7F7FA009B79
:104BD00080469B689C46002B0AD0009B5968634620
:104BE0009A0000234546C858E85004339342F9D14F
:104BF000E24509D9534662469A1A63469800002155
:104C000092004044FFF7CAFA009D4846EB680193C2
:104C1000FFF7D4FAAB6881469C46002B0AD0009B74
:104C2000D96863469A0000234D46C858E8500433BB
:104C30009342F9D1D44509D2534662469A1A634643
:104C40009800002192004844FFF7A8FA5346009AC2
:104C50009360434653604B46D3605B46002B02D0C3
:104C60005846FFF7B3FA019B002B02D01800FFF75C
:104C7000ADFA7368BF0001337360009B5B689C46AC
:104C800067443B68B9469846002B45D06E4A116888
:104C900000293AD06A480EE057683B68002B03D1E0
:104CA0000368013303603B609C4200D173E091686C
:104CB0000832002929D00B68002B03D10368013387
:104CC00003600B609C42E7D151680B68002B04D154
:104CD0005B4A1368013313600B60013B9C00644422
:104CE0002368002B11D030000DF08CFA4368804609
:104CF00001334360206843685A1E4260012B6FD025
:104D0000434623604B461B689846434641465B68D2
:104D10005A1E4A60012B35D04B461E60009B9A6894
:104D2000002A1FD0D968494B00240027984605E087
:104D30001F60009B9A680134A24213D9A6008B1908
:104D400018680028F7D04268551E4560012AEFD147
:104D500003685B6843450CD1FFF734FA009BD968C0
:104D60008B19E5E703B0F0BCBB46B246A946A046A6
:104D7000F0BD9847009BD9688B19D9E753469B0033
:104D8000994621E70B68314A5B684046934225D13A
:104D9000FFF718FAC0E70B68002B04D1284A136804
:104DA000013313600B60013B9C0064442368002BBB
:104DB000ABD0300004F0C8FC436880460133436048
:104DC000206843685A1E4260012B99D103681F4A2C
:104DD0005B6893420BD1FFF7F5F991E798479BE7A2
:104DE00003681A4A5B689342F5D0984788E798476A
:104DF00086E727F047FE4046FFF7E8F928F0D4FAA7
:104E000027F040FE27F078FE86E727F03BFE27F0EC
:104E100073FEAFE727F036FE27F06EFE70E727F04F
:104E200031FE27F069FE6BE727F066FE27F08EFC67
:104E30004B1CFBD127F0A6FDFAE7F9E7F8E7C046DF
:104E400054310020FEFFFF1F24E10310D149001060
:104E5000F8B53A4F06003B780D001400BFF35B8FA6
:104E6000DB073FD5364A1168002930D0354F0EE0B8
:104E700050680368002B03D13B6801333B6003603B
:104E8000013B9C4237D09168083200291FD00B6843
:104E9000002B03D13B6801333B600B60013B9C421C
:104EA000E6D152681368002B40D0F268A4001419B0
:104EB0002168013B00292ED0002D07D02B68224A03
:104EC0005B682800934237D1FFF77CF9F8BDF268A0
:104ED000A40014192368002BEED16B6801336B60BA
:104EE0002560F3E7380028F097FA0028BAD0380098
:104EF00028F0AEFAB6E70A68002A04D1114B1A6806
:104F000001321A600A602300541EF268A4001419CA
:104F100021680029D0D16968481C68602560581C48
:104F2000D4D002319B0069609D50CFE705490B68E2
:104F300001330B601360B8E79847C7E7CC20002027
:104F400024E1031054310020D1490010030000680F
:104F5000002804D1034A1168481C10601860013809
:104F60007047C04654310020F0B5DE464E464546F7
:104F700057463023E0B50600FD4C836089B00160E0
:104F8000C02200212000FFF709F97460F94CC0220B
:104F900000212000FFF702F9F460F74C14220021F1
:104FA000201DFFF7FBF8F54D34612560FFF736FD56
:104FB000022201002800FFF7F7F8F14C012300223C
:104FC0000021200005F08AFE22003000ED49FFF7A5
:104FD000D7FDED4C0121200028F0EAFF220030002F
:104FE000EA49FFF7CDFD0122E94BE9495A60E94B57
:104FF000E7480B6000238B60CB600B744B618B61C7
:10500000CB610B628B8400216433E34CC154E34BCE
:10501000A060002120006260236001F0B3F822004C
:105020003000DF49FFF7ACFD0123DE4A300053605A
:10503000DD4BDE491360FFF7A3FD0123DC4A30009E
:105040005360DC4BDC491360FFF79AFD0123DB4C16
:105050006360DB4B2360FFF7CFFCA06022003000D1
:10506000D849FFF78DFDD84B01229A4651465A6028
:10507000D64B50460B6000238B60CB60002103822F
:1050800043618361C361036243628362C3620363FA
:1050900043634333CE4CC154CE4B81746260A060F5
:1050A000002200212000236000F0D4FB2200300009
:1050B000C949FFF765FDC94B0122994649465A6027
:1050C000C74B48460B6000238B60CB6000210382F6
:1050D00043618361C361036243628362C3620363AA
:1050E00043634333BF4CC154BF4B81746260A060C3
:1050F000002200212000236000F05CFB2200300031
:10510000BA49FFF73DFD0123B94A30005360B94B5E
:10511000B9491360FFF734FD0123B84A30005360EA
:10512000B74BB8491360FFF72BFD0123B64D802222
:105130006B60B64B29002B600023AB60EB602B61EA
:105140006B61AB61EB612B626B62AB62EB622B63F9
:105150006B63AB63EB632B646B64AB64EB642B65D9
:105160006B65AB65EB652B666B66AB66EB662B67B9
:105170006B67AB67AB500432AB500432AB500432B8
:10518000AB500432AB500432AB500432AB5004325B
:10519000AB500432AB500432AB500432AB5004324B
:1051A000AB500432AB500432AB500432AB5004323B
:1051B000AB50974C0432AB500432AB542000EB6739
:1051C000C33A12F00FFE220030009249FFF7D8FCDC
:1051D0000123914A30005360904B91491360FFF7CF
:1051E000CFFC01238F4A300053608F4B8F491360EF
:1051F000FFF7C6FC8E4C012120000AF095FD22002D
:1052000030008C49FFF7BCFC8B4C0121200005F0DD
:1052100037FD220030008949FFF7B2FC884C01219C
:10522000200028F0DDFE220030008649FFF7A8FCB0
:10523000854B01229B4659465A60844B58460B6069
:1052400000238B60CB600B744B618B61CB610B6275
:105250004B628B62922149007D4C43547D4BA06090
:10526000002120006260236001F012F8220030006B
:105270007949FFF785FC0123784A30005360784B69
:1052800078491360FFF77CFC0123774A30005360B4
:10529000764B77491360FFF773FC0123754C63600D
:1052A000754B2360FFF7A8FBA06022003000734914
:1052B000FFF766FC724B0122984641465A60714BDB
:1052C00040460B6000238B60CB600B744B618B619D
:1052D000CB610B624B628B62CB620B634B638B6364
:1052E000CB636C21684C4354684B6260A060002221
:1052F00000212000236000F0B5FB2200300064494B
:10530000FFF73EFC634F644B6C213B60002301229E
:10531000624C7B54BB60FB603B747B61BB61FB6197
:105320003B627B62BB62FB623B637B63BB63FB6391
:105330005B4B7A6062600021002220002360A7603E
:1053400000F040FB220030005649FFF719FC012312
:10535000554A30005360554B55491360FFF710FC18
:105360000123544A30005360534B54491360A7E063
:10537000902E0020A02D0020882D002078260020CF
:105380008426002048310020602E0020B03100200B
:10539000F021002028E20310FC200020C4F30310B9
:1053A00080310020502F0020B4070410C0310020AD
:1053B000602F0020F0070410C8310020782E002054
:1053C000A8F303107031002010250020C4E1031061
:1053D000A02100201CF4031060310020542500207F
:1053E000B4E10310AC210020E8F303106431002085
:1053F000442100206CF4031090310020542100203F
:1054000084F4031098310020802300202008041029
:105410006421002090300020142100209CF403100F
:10542000883100202421002020090410EC310020C4
:10543000DC20002078310020A42800204C310020FE
:105440006C2E0020B43100205822002038E20310D6
:1054500008210020A800041084310020582F0020CB
:105460000C110410C4310020682F002048110410D2
:10547000CC310020842E00208C00041074310020D8
:1054800098250020E4E10310B82100200001041059
:105490006831002008260020D4E10310C421002038
:1054A000CC0004106C3100204C210020500104106D
:1054B000943100205C210020680104109C31002000
:1054C000FFF75EFB01237D4C802263607C4B210053
:1054D00023600023A360E36023616361A361E36150
:1054E00023626362A362E36223636363A363E36390
:1054F00023646364A364E36423656365A365E36570
:1055000023666366A366E36623676367A367A350A6
:105510000432A3500432A3500432A3500432A350E7
:105520000432A3500432A3500432A3500432A350D7
:105530000432A3500432A3500432A3500432A350C7
:105540000432A3500432A3500432A3500432A350B7
:105550000432A3545B48E367C33A1DF081FB30007B
:10556000584A5949FFF70CFB0123584A3000536051
:10557000574B58491360FFF703FB0123564A30008D
:105580005360564B56491360FFF7FAFA012155480C
:1055900011F0EAFA3000534A5349FFF7F1FA0123B8
:1055A000524A30005360524B52491360FFF7E8FAF9
:1055B0000123514A30005360504B51491360FFF7AB
:1055C000DFFA01234F4A300053604F4B4F491360BD
:1055D000FFF7D6FA01234E4A300053604D4B4E4937
:1055E0001360FFF7CDFA4D4B3000029353460393FF
:1055F0004B4604935B460593434602A906930797DF
:1056000001F06CFDF36846480193FFF79FFC019B96
:10561000424A8000C250F36842480193FFF796FC6B
:105620005246019B8000C250F3683F489A46FFF7FC
:105630008DFC4A4653468000C250F3683B48994669
:10564000FFF784FC4B468000C5503948F568FFF7EA
:105650007DFC5B46800043513648F568FFF776FCD9
:105660004346800043513448F568FFF76FFC8000E3
:1056700047511548F568FFF769FC80004451300038
:1056800009B0F0BCBB46B246A946A046F0BD050035
:105690000E00731C0FD1280027F074F905002000BC
:1056A0000E00FFF793F9F4E7F8E7F7E7F6E7F5E719
:1056B000F4E7F3E7F2E727F049F8C0464824002072
:1056C0007811041078210020943000201C21002043
:1056D000800104108C3100202C210020781204104D
:1056E000F0310020EC2000207C310020342100200B
:1056F00080E50310AC3100203C21002028E5031098
:10570000A4310020D021002054E50310A83100204E
:10571000D8210020FCE40310A0310020F02100205B
:105720008031002060310020643100209030002062
:1057300084310020683100206C310020F8B500234E
:10574000174E036033680400002B1AD0154D2A68E9
:1057500022609A420AD0144E3378BFF35B8FDB0786
:1057600006D52B681A68236001321A602000F8BD44
:10577000300027F051FE0028F3D0300027F068FEFB
:10578000EFE70A4F02213800FFF7EEFB054D390025
:10579000074837602F60FFF72DF93368D7E7C04619
:1057A000503100205C310020C42000208C210020DA
:1057B000842D002070B504008068002828D02E2396
:1057C0004374A268023B93740023A0681D4A1E4DD7
:1057D000C360836103628362C36282604261C261AB
:1057E0004262290004223030FEF7DEFCA068042269
:1057F00029003430FEF7D8FC0022144B1868A36847
:10580000815C9B183833013219700B2AF7D170BDB7
:105810004430FEF7CFFC0E4B0022036000234360B0
:105820008360C360038243618361C3610362436237
:105830008362C3620363436343338274A060C254D0
:10584000BDE7C046240E0410C01B0410C013002086
:10585000B4E1031070B504008068002828D02E231E
:105860004374A268023B93740023A0681D4A1E4D36
:10587000C360836103628362C36282604261C2610A
:105880004262290004223030FEF78EFCA068042218
:1058900029003430FEF788FC0022144B1868A368F6
:1058A000815C9B183833013219700B2AF7D170BD17
:1058B0004430FEF77FFC0E4B002203600023436060
:1058C0008360C360038243618361C3610362436297
:1058D0008362C3620363436343338274A060C25430
:1058E000BDE7C046240E0410C01B0410C0130020E6
:1058F000C4E10310094B10B5040003608068002860
:1059000002D003685B6898472000FFF75FF820002B
:1059100010BD2000FFF75AF826F018FFE8F3031037
:105920000D4B10B5040003608068002802D00368A6
:105930005B6898472000FFF749F82000FEF742FC1B
:10594000200010BD2000FFF741F82000FEF73AFCD0
:1059500026F0FCFEF9E7C046E8F30310094B10B54A
:10596000040003608068002802D003685B689847E1
:105970002000FFF72BF8200010BD2000FFF726F8CD
:1059800026F0E4FE1CF403100D4B10B50400036078
:105990008068002802D003685B6898472000FFF702
:1059A00015F82000FEF70EFC200010BD2000FFF7C8
:1059B0000DF82000FEF706FC26F0C8FEF9E7C04609
:1059C0001CF4031070B504008068002827D02E2234
:1059D0004261023A82611E4A1E49826000221E4DC7
:1059E000C260C161026241628262C162026342635B
:1059F000290004323830FEF7D7FBA06804222900C2
:105A00003C30FEF7D1FBA068144B1A6803006C30E1
:105A100040331178013202C38342FAD170BD703035
:105A2000FEF7C8FB0E49002201606C2142608260D3
:105A3000C260027442618261C26102624262826239
:105A4000C262026342638263C263A0604254BEE7E3
:105A5000240E0410C4470410C01B0410C0130020FF
:105A6000D4E1031070B504008068002827D02E22EE
:105A70004261023A82611E4A1E49826000221E4D26
:105A8000C260C161026241628262C16202634263BA
:105A9000290004323830FEF787FBA0680422290071
:105AA0003C30FEF781FBA068144B1A6803006C3091
:105AB00040331178013202C38342FAD170BD703095
:105AC000FEF778FB0E49002201606C214260826083
:105AD000C260027442618261C26102624262826299
